{
  "_format": "hh-sol-artifact-1",
  "contractName": "DojoTokens",
  "sourceName": "contracts/DojoTokens.sol",
  "abi": [
    {
      "inputs": [],
      "stateMutability": "nonpayable",
      "type": "constructor"
    },
    {
      "anonymous": false,
      "inputs": [
        {
          "indexed": true,
          "internalType": "address",
          "name": "account",
          "type": "address"
        },
        {
          "indexed": true,
          "internalType": "address",
          "name": "operator",
          "type": "address"
        },
        {
          "indexed": false,
          "internalType": "bool",
          "name": "approved",
          "type": "bool"
        }
      ],
      "name": "ApprovalForAll",
      "type": "event"
    },
    {
      "anonymous": false,
      "inputs": [
        {
          "indexed": true,
          "internalType": "address",
          "name": "seller",
          "type": "address"
        },
        {
          "indexed": true,
          "internalType": "address",
          "name": "winner",
          "type": "address"
        },
        {
          "indexed": true,
          "internalType": "uint256",
          "name": "tokenId",
          "type": "uint256"
        },
        {
          "indexed": false,
          "internalType": "uint256",
          "name": "amount",
          "type": "uint256"
        }
      ],
      "name": "AuctionEnded",
      "type": "event"
    },
    {
      "anonymous": false,
      "inputs": [
        {
          "indexed": true,
          "internalType": "address",
          "name": "seller",
          "type": "address"
        },
        {
          "indexed": true,
          "internalType": "uint256",
          "name": "tokenId",
          "type": "uint256"
        },
        {
          "indexed": false,
          "internalType": "uint256",
          "name": "startingPrice",
          "type": "uint256"
        },
        {
          "indexed": false,
          "internalType": "uint256",
          "name": "auctionEndTime",
          "type": "uint256"
        }
      ],
      "name": "AuctionStarted",
      "type": "event"
    },
    {
      "anonymous": false,
      "inputs": [
        {
          "indexed": true,
          "internalType": "address",
          "name": "bidder",
          "type": "address"
        },
        {
          "indexed": true,
          "internalType": "uint256",
          "name": "tokenId",
          "type": "uint256"
        },
        {
          "indexed": false,
          "internalType": "uint256",
          "name": "amount",
          "type": "uint256"
        }
      ],
      "name": "BidPlaced",
      "type": "event"
    },
    {
      "anonymous": false,
      "inputs": [
        {
          "indexed": false,
          "internalType": "address",
          "name": "account",
          "type": "address"
        }
      ],
      "name": "Paused",
      "type": "event"
    },
    {
      "anonymous": false,
      "inputs": [
        {
          "indexed": true,
          "internalType": "bytes32",
          "name": "role",
          "type": "bytes32"
        },
        {
          "indexed": true,
          "internalType": "bytes32",
          "name": "previousAdminRole",
          "type": "bytes32"
        },
        {
          "indexed": true,
          "internalType": "bytes32",
          "name": "newAdminRole",
          "type": "bytes32"
        }
      ],
      "name": "RoleAdminChanged",
      "type": "event"
    },
    {
      "anonymous": false,
      "inputs": [
        {
          "indexed": true,
          "internalType": "bytes32",
          "name": "role",
          "type": "bytes32"
        },
        {
          "indexed": true,
          "internalType": "address",
          "name": "account",
          "type": "address"
        },
        {
          "indexed": true,
          "internalType": "address",
          "name": "sender",
          "type": "address"
        }
      ],
      "name": "RoleGranted",
      "type": "event"
    },
    {
      "anonymous": false,
      "inputs": [
        {
          "indexed": true,
          "internalType": "bytes32",
          "name": "role",
          "type": "bytes32"
        },
        {
          "indexed": true,
          "internalType": "address",
          "name": "account",
          "type": "address"
        },
        {
          "indexed": true,
          "internalType": "address",
          "name": "sender",
          "type": "address"
        }
      ],
      "name": "RoleRevoked",
      "type": "event"
    },
    {
      "anonymous": false,
      "inputs": [
        {
          "indexed": true,
          "internalType": "address",
          "name": "_from",
          "type": "address"
        },
        {
          "indexed": true,
          "internalType": "address",
          "name": "_to",
          "type": "address"
        },
        {
          "indexed": false,
          "internalType": "uint256",
          "name": "_value",
          "type": "uint256"
        }
      ],
      "name": "Transfer",
      "type": "event"
    },
    {
      "anonymous": false,
      "inputs": [
        {
          "indexed": true,
          "internalType": "address",
          "name": "operator",
          "type": "address"
        },
        {
          "indexed": true,
          "internalType": "address",
          "name": "from",
          "type": "address"
        },
        {
          "indexed": true,
          "internalType": "address",
          "name": "to",
          "type": "address"
        },
        {
          "indexed": false,
          "internalType": "uint256[]",
          "name": "ids",
          "type": "uint256[]"
        },
        {
          "indexed": false,
          "internalType": "uint256[]",
          "name": "values",
          "type": "uint256[]"
        }
      ],
      "name": "TransferBatch",
      "type": "event"
    },
    {
      "anonymous": false,
      "inputs": [
        {
          "indexed": true,
          "internalType": "address",
          "name": "operator",
          "type": "address"
        },
        {
          "indexed": true,
          "internalType": "address",
          "name": "from",
          "type": "address"
        },
        {
          "indexed": true,
          "internalType": "address",
          "name": "to",
          "type": "address"
        },
        {
          "indexed": false,
          "internalType": "uint256",
          "name": "id",
          "type": "uint256"
        },
        {
          "indexed": false,
          "internalType": "uint256",
          "name": "value",
          "type": "uint256"
        }
      ],
      "name": "TransferSingle",
      "type": "event"
    },
    {
      "anonymous": false,
      "inputs": [
        {
          "indexed": false,
          "internalType": "string",
          "name": "value",
          "type": "string"
        },
        {
          "indexed": true,
          "internalType": "uint256",
          "name": "id",
          "type": "uint256"
        }
      ],
      "name": "URI",
      "type": "event"
    },
    {
      "anonymous": false,
      "inputs": [
        {
          "indexed": false,
          "internalType": "address",
          "name": "account",
          "type": "address"
        }
      ],
      "name": "Unpaused",
      "type": "event"
    },
    {
      "inputs": [],
      "name": "DEFAULT_ADMIN_ROLE",
      "outputs": [
        {
          "internalType": "bytes32",
          "name": "",
          "type": "bytes32"
        }
      ],
      "stateMutability": "view",
      "type": "function"
    },
    {
      "inputs": [],
      "name": "MINTER_ROLE",
      "outputs": [
        {
          "internalType": "bytes32",
          "name": "",
          "type": "bytes32"
        }
      ],
      "stateMutability": "view",
      "type": "function"
    },
    {
      "inputs": [],
      "name": "PAUSER_ROLE",
      "outputs": [
        {
          "internalType": "bytes32",
          "name": "",
          "type": "bytes32"
        }
      ],
      "stateMutability": "view",
      "type": "function"
    },
    {
      "inputs": [],
      "name": "URI_SETTER_ROLE",
      "outputs": [
        {
          "internalType": "bytes32",
          "name": "",
          "type": "bytes32"
        }
      ],
      "stateMutability": "view",
      "type": "function"
    },
    {
      "inputs": [
        {
          "internalType": "address",
          "name": "account",
          "type": "address"
        },
        {
          "internalType": "uint256",
          "name": "id",
          "type": "uint256"
        }
      ],
      "name": "balanceOf",
      "outputs": [
        {
          "internalType": "uint256",
          "name": "",
          "type": "uint256"
        }
      ],
      "stateMutability": "view",
      "type": "function"
    },
    {
      "inputs": [
        {
          "internalType": "address",
          "name": "account",
          "type": "address"
        }
      ],
      "name": "balanceOf",
      "outputs": [
        {
          "internalType": "uint256",
          "name": "",
          "type": "uint256"
        }
      ],
      "stateMutability": "view",
      "type": "function"
    },
    {
      "inputs": [
        {
          "internalType": "address[]",
          "name": "accounts",
          "type": "address[]"
        },
        {
          "internalType": "uint256[]",
          "name": "ids",
          "type": "uint256[]"
        }
      ],
      "name": "balanceOfBatch",
      "outputs": [
        {
          "internalType": "uint256[]",
          "name": "",
          "type": "uint256[]"
        }
      ],
      "stateMutability": "view",
      "type": "function"
    },
    {
      "inputs": [
        {
          "internalType": "uint256",
          "name": "id",
          "type": "uint256"
        }
      ],
      "name": "exists",
      "outputs": [
        {
          "internalType": "bool",
          "name": "",
          "type": "bool"
        }
      ],
      "stateMutability": "view",
      "type": "function"
    },
    {
      "inputs": [],
      "name": "getIsMintingPublic",
      "outputs": [
        {
          "internalType": "bool",
          "name": "",
          "type": "bool"
        }
      ],
      "stateMutability": "view",
      "type": "function"
    },
    {
      "inputs": [
        {
          "internalType": "address",
          "name": "_minter",
          "type": "address"
        }
      ],
      "name": "getMintAllowedCount",
      "outputs": [
        {
          "internalType": "uint256",
          "name": "",
          "type": "uint256"
        }
      ],
      "stateMutability": "view",
      "type": "function"
    },
    {
      "inputs": [
        {
          "internalType": "bytes32",
          "name": "role",
          "type": "bytes32"
        }
      ],
      "name": "getRoleAdmin",
      "outputs": [
        {
          "internalType": "bytes32",
          "name": "",
          "type": "bytes32"
        }
      ],
      "stateMutability": "view",
      "type": "function"
    },
    {
      "inputs": [
        {
          "internalType": "bytes32",
          "name": "role",
          "type": "bytes32"
        },
        {
          "internalType": "address",
          "name": "account",
          "type": "address"
        }
      ],
      "name": "grantRole",
      "outputs": [],
      "stateMutability": "nonpayable",
      "type": "function"
    },
    {
      "inputs": [
        {
          "internalType": "bytes32",
          "name": "role",
          "type": "bytes32"
        },
        {
          "internalType": "address",
          "name": "account",
          "type": "address"
        }
      ],
      "name": "hasRole",
      "outputs": [
        {
          "internalType": "bool",
          "name": "",
          "type": "bool"
        }
      ],
      "stateMutability": "view",
      "type": "function"
    },
    {
      "inputs": [
        {
          "internalType": "uint256",
          "name": "currencyCount",
          "type": "uint256"
        },
        {
          "internalType": "uint256",
          "name": "nftCount",
          "type": "uint256"
        },
        {
          "internalType": "uint256",
          "name": "nftWLCount",
          "type": "uint256"
        }
      ],
      "name": "initilizeToken",
      "outputs": [],
      "stateMutability": "nonpayable",
      "type": "function"
    },
    {
      "inputs": [
        {
          "internalType": "address",
          "name": "account",
          "type": "address"
        },
        {
          "internalType": "address",
          "name": "operator",
          "type": "address"
        }
      ],
      "name": "isApprovedForAll",
      "outputs": [
        {
          "internalType": "bool",
          "name": "",
          "type": "bool"
        }
      ],
      "stateMutability": "view",
      "type": "function"
    },
    {
      "inputs": [
        {
          "internalType": "address",
          "name": "_to",
          "type": "address"
        },
        {
          "internalType": "uint256",
          "name": "_amount",
          "type": "uint256"
        },
        {
          "internalType": "bytes",
          "name": "_data",
          "type": "bytes"
        }
      ],
      "name": "mint",
      "outputs": [
        {
          "internalType": "uint256",
          "name": "",
          "type": "uint256"
        }
      ],
      "stateMutability": "nonpayable",
      "type": "function"
    },
    {
      "inputs": [
        {
          "internalType": "address",
          "name": "to",
          "type": "address"
        },
        {
          "internalType": "uint256[]",
          "name": "ids",
          "type": "uint256[]"
        },
        {
          "internalType": "uint256[]",
          "name": "amounts",
          "type": "uint256[]"
        },
        {
          "internalType": "bytes",
          "name": "data",
          "type": "bytes"
        }
      ],
      "name": "mintBatch",
      "outputs": [],
      "stateMutability": "nonpayable",
      "type": "function"
    },
    {
      "inputs": [],
      "name": "pause",
      "outputs": [],
      "stateMutability": "nonpayable",
      "type": "function"
    },
    {
      "inputs": [],
      "name": "paused",
      "outputs": [
        {
          "internalType": "bool",
          "name": "",
          "type": "bool"
        }
      ],
      "stateMutability": "view",
      "type": "function"
    },
    {
      "inputs": [
        {
          "internalType": "address",
          "name": "_minter",
          "type": "address"
        }
      ],
      "name": "removeMinter",
      "outputs": [],
      "stateMutability": "nonpayable",
      "type": "function"
    },
    {
      "inputs": [
        {
          "internalType": "bytes32",
          "name": "role",
          "type": "bytes32"
        },
        {
          "internalType": "address",
          "name": "account",
          "type": "address"
        }
      ],
      "name": "renounceRole",
      "outputs": [],
      "stateMutability": "nonpayable",
      "type": "function"
    },
    {
      "inputs": [
        {
          "internalType": "bytes32",
          "name": "role",
          "type": "bytes32"
        },
        {
          "internalType": "address",
          "name": "account",
          "type": "address"
        }
      ],
      "name": "revokeRole",
      "outputs": [],
      "stateMutability": "nonpayable",
      "type": "function"
    },
    {
      "inputs": [
        {
          "internalType": "address",
          "name": "from",
          "type": "address"
        },
        {
          "internalType": "address",
          "name": "to",
          "type": "address"
        },
        {
          "internalType": "uint256[]",
          "name": "ids",
          "type": "uint256[]"
        },
        {
          "internalType": "uint256[]",
          "name": "amounts",
          "type": "uint256[]"
        },
        {
          "internalType": "bytes",
          "name": "data",
          "type": "bytes"
        }
      ],
      "name": "safeBatchTransferFrom",
      "outputs": [],
      "stateMutability": "nonpayable",
      "type": "function"
    },
    {
      "inputs": [
        {
          "internalType": "address",
          "name": "from",
          "type": "address"
        },
        {
          "internalType": "address",
          "name": "to",
          "type": "address"
        },
        {
          "internalType": "uint256",
          "name": "id",
          "type": "uint256"
        },
        {
          "internalType": "uint256",
          "name": "amount",
          "type": "uint256"
        },
        {
          "internalType": "bytes",
          "name": "data",
          "type": "bytes"
        }
      ],
      "name": "safeTransferFrom",
      "outputs": [],
      "stateMutability": "nonpayable",
      "type": "function"
    },
    {
      "inputs": [
        {
          "internalType": "address",
          "name": "operator",
          "type": "address"
        },
        {
          "internalType": "bool",
          "name": "approved",
          "type": "bool"
        }
      ],
      "name": "setApprovalForAll",
      "outputs": [],
      "stateMutability": "nonpayable",
      "type": "function"
    },
    {
      "inputs": [
        {
          "internalType": "bool",
          "name": "_isPublic",
          "type": "bool"
        }
      ],
      "name": "setIsMintingPublic",
      "outputs": [],
      "stateMutability": "nonpayable",
      "type": "function"
    },
    {
      "inputs": [
        {
          "internalType": "address",
          "name": "_minter",
          "type": "address"
        },
        {
          "internalType": "uint256",
          "name": "_mintCount",
          "type": "uint256"
        }
      ],
      "name": "setMintAllowedCount",
      "outputs": [],
      "stateMutability": "nonpayable",
      "type": "function"
    },
    {
      "inputs": [
        {
          "internalType": "string",
          "name": "newuri",
          "type": "string"
        }
      ],
      "name": "setURI",
      "outputs": [],
      "stateMutability": "nonpayable",
      "type": "function"
    },
    {
      "inputs": [
        {
          "internalType": "bytes4",
          "name": "interfaceId",
          "type": "bytes4"
        }
      ],
      "name": "supportsInterface",
      "outputs": [
        {
          "internalType": "bool",
          "name": "",
          "type": "bool"
        }
      ],
      "stateMutability": "view",
      "type": "function"
    },
    {
      "inputs": [],
      "name": "totalSupply",
      "outputs": [
        {
          "internalType": "uint256",
          "name": "",
          "type": "uint256"
        }
      ],
      "stateMutability": "view",
      "type": "function"
    },
    {
      "inputs": [
        {
          "internalType": "uint256",
          "name": "id",
          "type": "uint256"
        }
      ],
      "name": "totalSupply",
      "outputs": [
        {
          "internalType": "uint256",
          "name": "",
          "type": "uint256"
        }
      ],
      "stateMutability": "view",
      "type": "function"
    },
    {
      "inputs": [
        {
          "internalType": "address",
          "name": "to",
          "type": "address"
        },
        {
          "internalType": "uint256",
          "name": "amount",
          "type": "uint256"
        }
      ],
      "name": "transfer",
      "outputs": [],
      "stateMutability": "nonpayable",
      "type": "function"
    },
    {
      "inputs": [],
      "name": "unpause",
      "outputs": [],
      "stateMutability": "nonpayable",
      "type": "function"
    },
    {
      "inputs": [
        {
          "internalType": "uint256",
          "name": "",
          "type": "uint256"
        }
      ],
      "name": "uri",
      "outputs": [
        {
          "internalType": "string",
          "name": "",
          "type": "string"
        }
      ],
      "stateMutability": "view",
      "type": "function"
    },
    {
      "inputs": [
        {
          "internalType": "address",
          "name": "_minter",
          "type": "address"
        }
      ],
      "name": "whitelistMinter",
      "outputs": [],
      "stateMutability": "nonpayable",
      "type": "function"
    }
  ],
  "bytecode": "0x6080604052600060085560006009556000600a556000600b60006101000a81548160ff0219169083151502179055506000600c556000600d556000600f553480156200004a57600080fd5b50604051806020016040528060008152506200006c816200013960201b60201c565b506000600460006101000a81548160ff0219169083151502179055506200009d6000801b336200014e60201b60201c565b620000cf7f7804d923f43a17d325d77e781528e0793b2edd9890ab45fc64efd7b4b427744c336200014e60201b60201c565b620001017f65d7a28e3265b37a6474929f336521b332c1681b933f6cb9f3376673440d862a336200014e60201b60201c565b620001337f9f2df0fed2c77648de5860a4cc508cd0818c85b8b8a1ab4ceeef8d981c8956a6336200014e60201b60201c565b62000614565b80600290816200014a91906200052d565b5050565b6200016082826200024060201b60201c565b6200023c5760016003600084815260200190815260200160002060000160008373ffffffffffffffffffffffffffffffffffffffff1673ffffffffffffffffffffffffffffffffffffffff16815260200190815260200160002060006101000a81548160ff021916908315150217905550620001e1620002ab60201b60201c565b73ffffffffffffffffffffffffffffffffffffffff168173ffffffffffffffffffffffffffffffffffffffff16837f2f8788117e7eff1d82e926ec794901d17c78024a50270940304540a733656f0d60405160405180910390a45b5050565b60006003600084815260200190815260200160002060000160008373ffffffffffffffffffffffffffffffffffffffff1673ffffffffffffffffffffffffffffffffffffffff16815260200190815260200160002060009054906101000a900460ff16905092915050565b600033905090565b600081519050919050565b7f4e487b7100000000000000000000000000000000000000000000000000000000600052604160045260246000fd5b7f4e487b7100000000000000000000000000000000000000000000000000000000600052602260045260246000fd5b600060028204905060018216806200033557607f821691505b6020821081036200034b576200034a620002ed565b5b50919050565b60008190508160005260206000209050919050565b60006020601f8301049050919050565b600082821b905092915050565b600060088302620003b57fffffffffffffffffffffffffffffffffffffffffffffffffffffffffffffffff8262000376565b620003c1868362000376565b95508019841693508086168417925050509392505050565b6000819050919050565b6000819050919050565b60006200040e620004086200040284620003d9565b620003e3565b620003d9565b9050919050565b6000819050919050565b6200042a83620003ed565b62000442620004398262000415565b84845462000383565b825550505050565b600090565b620004596200044a565b620004668184846200041f565b505050565b5b818110156200048e57620004826000826200044f565b6001810190506200046c565b5050565b601f821115620004dd57620004a78162000351565b620004b28462000366565b81016020851015620004c2578190505b620004da620004d18562000366565b8301826200046b565b50505b505050565b600082821c905092915050565b60006200050260001984600802620004e2565b1980831691505092915050565b60006200051d8383620004ef565b9150826002028217905092915050565b6200053882620002b3565b67ffffffffffffffff811115620005545762000553620002be565b5b6200056082546200031c565b6200056d82828562000492565b600060209050601f831160018114620005a5576000841562000590578287015190505b6200059c85826200050f565b8655506200060c565b601f198416620005b58662000351565b60005b82811015620005df57848901518255600182019150602085019450602081019050620005b8565b86831015620005ff5784890151620005fb601f891682620004ef565b8355505b6001600288020188555050505b505050505050565b61552a80620006246000396000f3fe608060405234801561001057600080fd5b50600436106102105760003560e01c806370a0823111610125578063b8c39dce116100ad578063d547741f1161007c578063d547741f1461060d578063dba120f814610629578063e63ab1e914610659578063e985e9c514610677578063f242432a146106a757610210565b8063b8c39dce14610587578063bd85b039146105a3578063c99b4de7146105d3578063d5391393146105ef57610210565b806394d008ef116100f457806394d008ef146104e55780639bb257ad14610515578063a217fddf14610531578063a22cb4651461054f578063a9059cbb1461056b57610210565b806370a082311461045d5780637f3457101461048d5780638456cb59146104ab57806391d14854146104b557610210565b80632eb2c2d6116101a85780633f4ba83a116101775780633f4ba83a146103b75780634c8c5e7a146103c15780634e1273f4146103df5780634f558e791461040f5780635c975abb1461043f57610210565b80632eb2c2d6146103475780632f2ff15d146103635780633092afd51461037f57806336568abe1461039b57610210565b806318160ddd116101e457806318160ddd146102c15780631f7fdffa146102df578063248a9ca3146102fb57806325bdd42f1461032b57610210565b8062fdd58e1461021557806301ffc9a71461024557806302fe5305146102755780630e89341c14610291575b600080fd5b61022f600480360381019061022a919061351b565b6106c3565b60405161023c919061356a565b60405180910390f35b61025f600480360381019061025a91906135dd565b61078b565b60405161026c9190613625565b60405180910390f35b61028f600480360381019061028a9190613786565b61079d565b005b6102ab60048036038101906102a691906137cf565b6107d4565b6040516102b8919061387b565b60405180910390f35b6102c9610868565b6040516102d6919061356a565b60405180910390f35b6102f960048036038101906102f49190613a06565b61086e565b005b61031560048036038101906103109190613af7565b610b4e565b6040516103229190613b33565b60405180910390f35b61034560048036038101906103409190613b4e565b610b6e565b005b610361600480360381019061035c9190613ba1565b610bf6565b005b61037d60048036038101906103789190613c70565b610c97565b005b61039960048036038101906103949190613cb0565b610cb8565b005b6103b560048036038101906103b09190613c70565b610d38565b005b6103bf610dbb565b005b6103c9610df0565b6040516103d69190613625565b60405180910390f35b6103f960048036038101906103f49190613da0565b610e07565b6040516104069190613ed6565b60405180910390f35b610429600480360381019061042491906137cf565b610f20565b6040516104369190613625565b60405180910390f35b610447610f34565b6040516104549190613625565b60405180910390f35b61047760048036038101906104729190613cb0565b610f4b565b604051610484919061356a565b60405180910390f35b610495610f94565b6040516104a29190613b33565b60405180910390f35b6104b3610fb8565b005b6104cf60048036038101906104ca9190613c70565b610fed565b6040516104dc9190613625565b60405180910390f35b6104ff60048036038101906104fa9190613ef8565b611058565b60405161050c919061356a565b60405180910390f35b61052f600480360381019061052a9190613cb0565b61140e565b005b61053961148e565b6040516105469190613b33565b60405180910390f35b61056960048036038101906105649190613f93565b611495565b005b6105856004803603810190610580919061351b565b6114ab565b005b6105a1600480360381019061059c9190613fd3565b611642565b005b6105bd60048036038101906105b891906137cf565b61166d565b6040516105ca919061356a565b60405180910390f35b6105ed60048036038101906105e8919061351b565b61168a565b005b6105f76116e0565b6040516106049190613b33565b60405180910390f35b61062760048036038101906106229190613c70565b611704565b005b610643600480360381019061063e9190613cb0565b611725565b604051610650919061356a565b60405180910390f35b61066161176e565b60405161066e9190613b33565b60405180910390f35b610691600480360381019061068c9190614000565b611792565b60405161069e9190613625565b60405180910390f35b6106c160048036038101906106bc9190614040565b611826565b005b60008073ffffffffffffffffffffffffffffffffffffffff168373ffffffffffffffffffffffffffffffffffffffff1603610733576040517f08c379a000000000000000000000000000000000000000000000000000000000815260040161072a90614149565b60405180910390fd5b60008083815260200190815260200160002060008473ffffffffffffffffffffffffffffffffffffffff1673ffffffffffffffffffffffffffffffffffffffff16815260200190815260200160002054905092915050565b6000610796826118c7565b9050919050565b7f7804d923f43a17d325d77e781528e0793b2edd9890ab45fc64efd7b4b427744c6107c781611941565b6107d082611955565b5050565b6060600280546107e390614198565b80601f016020809104026020016040519081016040528092919081815260200182805461080f90614198565b801561085c5780601f106108315761010080835404028352916020019161085c565b820191906000526020600020905b81548152906001019060200180831161083f57829003601f168201915b50505050509050919050565b600f5481565b6000801b61087b81611941565b610883611968565b6008548451600c5461089591906141f8565b10156108d6576040517f08c379a00000000000000000000000000000000000000000000000000000000081526004016108cd90614278565b60405180910390fd5b600a548451600d54600c546108eb91906141f8565b6108f591906141f8565b1015610936576040517f08c379a000000000000000000000000000000000000000000000000000000000815260040161092d906142e4565b60405180910390fd5b60005b84518110156109d957600015156007600087848151811061095d5761095c614304565b5b6020026020010151815260200190815260200160002060050160009054906101000a900460ff161515146109c6576040517f08c379a00000000000000000000000000000000000000000000000000000000081526004016109bd9061437f565b60405180910390fd5b80806109d19061439f565b915050610939565b506109e6858585856119b2565b60005b8451811015610b2c57600160076000878481518110610a0b57610a0a614304565b5b6020026020010151815260200190815260200160002060050160006101000a81548160ff0219169083151502179055503360076000878481518110610a5357610a52614304565b5b6020026020010151815260200190815260200160002060010160006101000a81548173ffffffffffffffffffffffffffffffffffffffff021916908373ffffffffffffffffffffffffffffffffffffffff1602179055503360076000878481518110610ac257610ac1614304565b5b6020026020010151815260200190815260200160002060000160006101000a81548173ffffffffffffffffffffffffffffffffffffffff021916908373ffffffffffffffffffffffffffffffffffffffff1602179055508080610b249061439f565b9150506109e9565b508351600d6000828254610b4091906141f8565b925050819055505050505050565b600060036000838152602001908152602001600020600101549050919050565b6000801b610b7b81611941565b83600f81905550610ba0336000600f5460405180602001604052806000815250611bde565b600f54600e60003373ffffffffffffffffffffffffffffffffffffffff1673ffffffffffffffffffffffffffffffffffffffff16815260200190815260200160002081905550610bf08383611d8e565b50505050565b610bfe611f95565b73ffffffffffffffffffffffffffffffffffffffff168573ffffffffffffffffffffffffffffffffffffffff161480610c445750610c4385610c3e611f95565b611792565b5b610c83576040517f08c379a0000000000000000000000000000000000000000000000000000000008152600401610c7a90614459565b60405180910390fd5b610c908585858585611f9d565b5050505050565b610ca082610b4e565b610ca981611941565b610cb383836122be565b505050565b6000801b610cc581611941565b610cef7f9f2df0fed2c77648de5860a4cc508cd0818c85b8b8a1ab4ceeef8d981c8956a68361239f565b6000600660008473ffffffffffffffffffffffffffffffffffffffff1673ffffffffffffffffffffffffffffffffffffffff168152602001908152602001600020819055505050565b610d40611f95565b73ffffffffffffffffffffffffffffffffffffffff168173ffffffffffffffffffffffffffffffffffffffff1614610dad576040517f08c379a0000000000000000000000000000000000000000000000000000000008152600401610da4906144eb565b60405180910390fd5b610db7828261239f565b5050565b7f65d7a28e3265b37a6474929f336521b332c1681b933f6cb9f3376673440d862a610de581611941565b610ded612481565b50565b6000600b60009054906101000a900460ff16905090565b60608151835114610e4d576040517f08c379a0000000000000000000000000000000000000000000000000000000008152600401610e449061457d565b60405180910390fd5b6000835167ffffffffffffffff811115610e6a57610e6961365b565b5b604051908082528060200260200182016040528015610e985781602001602082028036833780820191505090505b50905060005b8451811015610f1557610ee5858281518110610ebd57610ebc614304565b5b6020026020010151858381518110610ed857610ed7614304565b5b60200260200101516106c3565b828281518110610ef857610ef7614304565b5b60200260200101818152505080610f0e9061439f565b9050610e9e565b508091505092915050565b600080610f2c8361166d565b119050919050565b6000600460009054906101000a900460ff16905090565b6000600e60008373ffffffffffffffffffffffffffffffffffffffff1673ffffffffffffffffffffffffffffffffffffffff168152602001908152602001600020549050919050565b7f7804d923f43a17d325d77e781528e0793b2edd9890ab45fc64efd7b4b427744c81565b7f65d7a28e3265b37a6474929f336521b332c1681b933f6cb9f3376673440d862a610fe281611941565b610fea6124e4565b50565b60006003600084815260200190815260200160002060000160008373ffffffffffffffffffffffffffffffffffffffff1673ffffffffffffffffffffffffffffffffffffffff16815260200190815260200160002060009054906101000a900460ff16905092915050565b6000600b60009054906101000a900460ff168061109b575061109a7f9f2df0fed2c77648de5860a4cc508cd0818c85b8b8a1ab4ceeef8d981c8956a633610fed565b5b6110da576040517f08c379a00000000000000000000000000000000000000000000000000000000081526004016110d1906145e9565b60405180910390fd5b6110e2611968565b6001600660003373ffffffffffffffffffffffffffffffffffffffff1673ffffffffffffffffffffffffffffffffffffffff168152602001908152602001600020541015611165576040517f08c379a000000000000000000000000000000000000000000000000000000000815260040161115c90614655565b60405180910390fd5b600854600c5410156111ac576040517f08c379a00000000000000000000000000000000000000000000000000000000081526004016111a390614278565b60405180910390fd5b600a54600d54600c546111bf91906141f8565b1015611200576040517f08c379a00000000000000000000000000000000000000000000000000000000081526004016111f7906142e4565b60405180910390fd5b600061120a612547565b9050600015156007600083815260200190815260200160002060050160009054906101000a900460ff16151514611276576040517f08c379a000000000000000000000000000000000000000000000000000000000815260040161126d906146c1565b60405180910390fd5b61128285828686611bde565b60016007600083815260200190815260200160002060050160006101000a81548160ff021916908315150217905550336007600083815260200190815260200160002060010160006101000a81548173ffffffffffffffffffffffffffffffffffffffff021916908373ffffffffffffffffffffffffffffffffffffffff160217905550336007600083815260200190815260200160002060000160006101000a81548173ffffffffffffffffffffffffffffffffffffffff021916908373ffffffffffffffffffffffffffffffffffffffff1602179055506001600660003373ffffffffffffffffffffffffffffffffffffffff1673ffffffffffffffffffffffffffffffffffffffff16815260200190815260200160002060008282546113ab91906146e1565b9250508190555060001515600b60009054906101000a900460ff161515036113ea57600c60008154809291906113e09061439f565b9190505550611403565b600d60008154809291906113fd9061439f565b91905055505b809150509392505050565b6000801b61141b81611941565b6114457f9f2df0fed2c77648de5860a4cc508cd0818c85b8b8a1ab4ceeef8d981c8956a6836122be565b6000600660008473ffffffffffffffffffffffffffffffffffffffff1673ffffffffffffffffffffffffffffffffffffffff168152602001908152602001600020819055505050565b6000801b81565b6114a76114a0611f95565b83836125a0565b5050565b80600e60003373ffffffffffffffffffffffffffffffffffffffff1673ffffffffffffffffffffffffffffffffffffffff16815260200190815260200160002054101561152d576040517f08c379a000000000000000000000000000000000000000000000000000000000815260040161152490614761565b60405180910390fd5b80600e60003373ffffffffffffffffffffffffffffffffffffffff1673ffffffffffffffffffffffffffffffffffffffff168152602001908152602001600020600082825461157c91906146e1565b9250508190555080600e60008473ffffffffffffffffffffffffffffffffffffffff1673ffffffffffffffffffffffffffffffffffffffff16815260200190815260200160002060008282546115d291906141f8565b925050819055508173ffffffffffffffffffffffffffffffffffffffff163373ffffffffffffffffffffffffffffffffffffffff167fddf252ad1be2c89b69c2b068fc378daa952ba7f163c4a11628f55a4df523b3ef83604051611636919061356a565b60405180910390a35050565b6000801b61164f81611941565b81600b60006101000a81548160ff0219169083151502179055505050565b600060056000838152602001908152602001600020549050919050565b6000801b61169781611941565b81600660008573ffffffffffffffffffffffffffffffffffffffff1673ffffffffffffffffffffffffffffffffffffffff16815260200190815260200160002081905550505050565b7f9f2df0fed2c77648de5860a4cc508cd0818c85b8b8a1ab4ceeef8d981c8956a681565b61170d82610b4e565b61171681611941565b611720838361239f565b505050565b6000600660008373ffffffffffffffffffffffffffffffffffffffff1673ffffffffffffffffffffffffffffffffffffffff168152602001908152602001600020549050919050565b7f65d7a28e3265b37a6474929f336521b332c1681b933f6cb9f3376673440d862a81565b6000600160008473ffffffffffffffffffffffffffffffffffffffff1673ffffffffffffffffffffffffffffffffffffffff16815260200190815260200160002060008373ffffffffffffffffffffffffffffffffffffffff1673ffffffffffffffffffffffffffffffffffffffff16815260200190815260200160002060009054906101000a900460ff16905092915050565b61182e611f95565b73ffffffffffffffffffffffffffffffffffffffff168573ffffffffffffffffffffffffffffffffffffffff16148061187457506118738561186e611f95565b611792565b5b6118b3576040517f08c379a00000000000000000000000000000000000000000000000000000000081526004016118aa90614459565b60405180910390fd5b6118c0858585858561270c565b5050505050565b60007f7965db0b000000000000000000000000000000000000000000000000000000007bffffffffffffffffffffffffffffffffffffffffffffffffffffffff1916827bffffffffffffffffffffffffffffffffffffffffffffffffffffffff1916148061193a5750611939826129a7565b5b9050919050565b6119528161194d611f95565b612a89565b50565b8060029081611964919061492d565b5050565b611970610f34565b156119b0576040517f08c379a00000000000000000000000000000000000000000000000000000000081526004016119a790614a4b565b60405180910390fd5b565b600073ffffffffffffffffffffffffffffffffffffffff168473ffffffffffffffffffffffffffffffffffffffff1603611a21576040517f08c379a0000000000000000000000000000000000000000000000000000000008152600401611a1890614add565b60405180910390fd5b8151835114611a65576040517f08c379a0000000000000000000000000000000000000000000000000000000008152600401611a5c90614b6f565b60405180910390fd5b6000611a6f611f95565b9050611a8081600087878787612b0e565b60005b8451811015611b3957838181518110611a9f57611a9e614304565b5b6020026020010151600080878481518110611abd57611abc614304565b5b6020026020010151815260200190815260200160002060008873ffffffffffffffffffffffffffffffffffffffff1673ffffffffffffffffffffffffffffffffffffffff1681526020019081526020016000206000828254611b1f91906141f8565b925050819055508080611b319061439f565b915050611a83565b508473ffffffffffffffffffffffffffffffffffffffff16600073ffffffffffffffffffffffffffffffffffffffff168273ffffffffffffffffffffffffffffffffffffffff167f4a39dc06d4c0dbc64b70af90fd698a233a518aa5d07e595d983b8c0526c8f7fb8787604051611bb1929190614b8f565b60405180910390a4611bc881600087878787612b2c565b611bd781600087878787612b34565b5050505050565b600073ffffffffffffffffffffffffffffffffffffffff168473ffffffffffffffffffffffffffffffffffffffff1603611c4d576040517f08c379a0000000000000000000000000000000000000000000000000000000008152600401611c4490614add565b60405180910390fd5b6000611c57611f95565b90506000611c6485612d0b565b90506000611c7185612d0b565b9050611c8283600089858589612b0e565b8460008088815260200190815260200160002060008973ffffffffffffffffffffffffffffffffffffffff1673ffffffffffffffffffffffffffffffffffffffff1681526020019081526020016000206000828254611ce191906141f8565b925050819055508673ffffffffffffffffffffffffffffffffffffffff16600073ffffffffffffffffffffffffffffffffffffffff168473ffffffffffffffffffffffffffffffffffffffff167fc3d58168c5ae7397731d063d5bbf3d657854427343f4c083240f7aacaa2d0f628989604051611d5f929190614bc6565b60405180910390a4611d7683600089858589612b2c565b611d8583600089898989612d85565b50505050505050565b6000801b611d9b81611941565b82600a81905550816008819055508183611db591906146e1565b6009819055506000600190505b600a548111611f8f5760008190506040518060e00160405280600073ffffffffffffffffffffffffffffffffffffffff168152602001600073ffffffffffffffffffffffffffffffffffffffff168152602001828152602001600081526020016040518060400160405280600281526020017f7b7d0000000000000000000000000000000000000000000000000000000000008152508152602001600015158152602001600015158152506007600083815260200190815260200160002060008201518160000160006101000a81548173ffffffffffffffffffffffffffffffffffffffff021916908373ffffffffffffffffffffffffffffffffffffffff16021790555060208201518160010160006101000a81548173ffffffffffffffffffffffffffffffffffffffff021916908373ffffffffffffffffffffffffffffffffffffffff16021790555060408201518160020155606082015181600301556080820151816004019081611f37919061492d565b5060a08201518160050160006101000a81548160ff02191690831515021790555060c08201518160050160016101000a81548160ff021916908315150217905550905050508080611f879061439f565b915050611dc2565b50505050565b600033905090565b8151835114611fe1576040517f08c379a0000000000000000000000000000000000000000000000000000000008152600401611fd890614b6f565b60405180910390fd5b600073ffffffffffffffffffffffffffffffffffffffff168473ffffffffffffffffffffffffffffffffffffffff1603612050576040517f08c379a000000000000000000000000000000000000000000000000000000000815260040161204790614c61565b60405180910390fd5b600061205a611f95565b905061206a818787878787612b0e565b60005b845181101561221b57600085828151811061208b5761208a614304565b5b6020026020010151905060008583815181106120aa576120a9614304565b5b60200260200101519050600080600084815260200190815260200160002060008b73ffffffffffffffffffffffffffffffffffffffff1673ffffffffffffffffffffffffffffffffffffffff1681526020019081526020016000205490508181101561214b576040517f08c379a000000000000000000000000000000000000000000000000000000000815260040161214290614cf3565b60405180910390fd5b81810360008085815260200190815260200160002060008c73ffffffffffffffffffffffffffffffffffffffff1673ffffffffffffffffffffffffffffffffffffffff168152602001908152602001600020819055508160008085815260200190815260200160002060008b73ffffffffffffffffffffffffffffffffffffffff1673ffffffffffffffffffffffffffffffffffffffff168152602001908152602001600020600082825461220091906141f8565b92505081905550505050806122149061439f565b905061206d565b508473ffffffffffffffffffffffffffffffffffffffff168673ffffffffffffffffffffffffffffffffffffffff168273ffffffffffffffffffffffffffffffffffffffff167f4a39dc06d4c0dbc64b70af90fd698a233a518aa5d07e595d983b8c0526c8f7fb8787604051612292929190614b8f565b60405180910390a46122a8818787878787612b2c565b6122b6818787878787612b34565b505050505050565b6122c88282610fed565b61239b5760016003600084815260200190815260200160002060000160008373ffffffffffffffffffffffffffffffffffffffff1673ffffffffffffffffffffffffffffffffffffffff16815260200190815260200160002060006101000a81548160ff021916908315150217905550612340611f95565b73ffffffffffffffffffffffffffffffffffffffff168173ffffffffffffffffffffffffffffffffffffffff16837f2f8788117e7eff1d82e926ec794901d17c78024a50270940304540a733656f0d60405160405180910390a45b5050565b6123a98282610fed565b1561247d5760006003600084815260200190815260200160002060000160008373ffffffffffffffffffffffffffffffffffffffff1673ffffffffffffffffffffffffffffffffffffffff16815260200190815260200160002060006101000a81548160ff021916908315150217905550612422611f95565b73ffffffffffffffffffffffffffffffffffffffff168173ffffffffffffffffffffffffffffffffffffffff16837ff6391f5c32d9c69d2a47ea670b442974b53935d1edc7fd64eb21e047a839171b60405160405180910390a45b5050565b612489612f5c565b6000600460006101000a81548160ff0219169083151502179055507f5db9ee0a495bf2e6ff9c91a7834c1ba4fdd244a5e8aa4e537bd38aeae4b073aa6124cd611f95565b6040516124da9190614d22565b60405180910390a1565b6124ec611968565b6001600460006101000a81548160ff0219169083151502179055507f62e78cea01bee320cd4e420270b5ea74000d11b0c9f74754ebdbfc544b05a258612530611f95565b60405161253d9190614d22565b60405180910390a1565b60008042443360405160200161255f93929190614da6565b6040516020818303038152906040528051906020012060001c9050600060016103e88361258c9190614e12565b61259691906141f8565b9050809250505090565b8173ffffffffffffffffffffffffffffffffffffffff168373ffffffffffffffffffffffffffffffffffffffff160361260e576040517f08c379a000000000000000000000000000000000000000000000000000000000815260040161260590614eb5565b60405180910390fd5b80600160008573ffffffffffffffffffffffffffffffffffffffff1673ffffffffffffffffffffffffffffffffffffffff16815260200190815260200160002060008473ffffffffffffffffffffffffffffffffffffffff1673ffffffffffffffffffffffffffffffffffffffff16815260200190815260200160002060006101000a81548160ff0219169083151502179055508173ffffffffffffffffffffffffffffffffffffffff168373ffffffffffffffffffffffffffffffffffffffff167f17307eab39ab6107e8899845ad3d59bd9653f200f220920489ca2b5937696c31836040516126ff9190613625565b60405180910390a3505050565b600073ffffffffffffffffffffffffffffffffffffffff168473ffffffffffffffffffffffffffffffffffffffff160361277b576040517f08c379a000000000000000000000000000000000000000000000000000000000815260040161277290614c61565b60405180910390fd5b6000612785611f95565b9050600061279285612d0b565b9050600061279f85612d0b565b90506127af838989858589612b0e565b600080600088815260200190815260200160002060008a73ffffffffffffffffffffffffffffffffffffffff1673ffffffffffffffffffffffffffffffffffffffff16815260200190815260200160002054905085811015612846576040517f08c379a000000000000000000000000000000000000000000000000000000000815260040161283d90614cf3565b60405180910390fd5b85810360008089815260200190815260200160002060008b73ffffffffffffffffffffffffffffffffffffffff1673ffffffffffffffffffffffffffffffffffffffff168152602001908152602001600020819055508560008089815260200190815260200160002060008a73ffffffffffffffffffffffffffffffffffffffff1673ffffffffffffffffffffffffffffffffffffffff16815260200190815260200160002060008282546128fb91906141f8565b925050819055508773ffffffffffffffffffffffffffffffffffffffff168973ffffffffffffffffffffffffffffffffffffffff168573ffffffffffffffffffffffffffffffffffffffff167fc3d58168c5ae7397731d063d5bbf3d657854427343f4c083240f7aacaa2d0f628a8a604051612978929190614bc6565b60405180910390a461298e848a8a86868a612b2c565b61299c848a8a8a8a8a612d85565b505050505050505050565b60007fd9b67a26000000000000000000000000000000000000000000000000000000007bffffffffffffffffffffffffffffffffffffffffffffffffffffffff1916827bffffffffffffffffffffffffffffffffffffffffffffffffffffffff19161480612a7257507f0e89341c000000000000000000000000000000000000000000000000000000007bffffffffffffffffffffffffffffffffffffffffffffffffffffffff1916827bffffffffffffffffffffffffffffffffffffffffffffffffffffffff1916145b80612a825750612a8182612fa5565b5b9050919050565b612a938282610fed565b612b0a57612aa08161300f565b612aae8360001c602061303c565b604051602001612abf929190614fa9565b6040516020818303038152906040526040517f08c379a0000000000000000000000000000000000000000000000000000000008152600401612b01919061387b565b60405180910390fd5b5050565b612b16611968565b612b24868686868686613278565b505050505050565b505050505050565b612b538473ffffffffffffffffffffffffffffffffffffffff16613448565b15612d03578373ffffffffffffffffffffffffffffffffffffffff1663bc197c8187878686866040518663ffffffff1660e01b8152600401612b99959493929190615038565b6020604051808303816000875af1925050508015612bd557506040513d601f19601f82011682018060405250810190612bd291906150b5565b60015b612c7a57612be16150ef565b806308c379a003612c3d5750612bf5615111565b80612c005750612c3f565b806040517f08c379a0000000000000000000000000000000000000000000000000000000008152600401612c34919061387b565b60405180910390fd5b505b6040517f08c379a0000000000000000000000000000000000000000000000000000000008152600401612c7190615213565b60405180910390fd5b63bc197c8160e01b7bffffffffffffffffffffffffffffffffffffffffffffffffffffffff1916817bffffffffffffffffffffffffffffffffffffffffffffffffffffffff191614612d01576040517f08c379a0000000000000000000000000000000000000000000000000000000008152600401612cf8906152a5565b60405180910390fd5b505b505050505050565b60606000600167ffffffffffffffff811115612d2a57612d2961365b565b5b604051908082528060200260200182016040528015612d585781602001602082028036833780820191505090505b5090508281600081518110612d7057612d6f614304565b5b60200260200101818152505080915050919050565b612da48473ffffffffffffffffffffffffffffffffffffffff16613448565b15612f54578373ffffffffffffffffffffffffffffffffffffffff1663f23a6e6187878686866040518663ffffffff1660e01b8152600401612dea9594939291906152c5565b6020604051808303816000875af1925050508015612e2657506040513d601f19601f82011682018060405250810190612e2391906150b5565b60015b612ecb57612e326150ef565b806308c379a003612e8e5750612e46615111565b80612e515750612e90565b806040517f08c379a0000000000000000000000000000000000000000000000000000000008152600401612e85919061387b565b60405180910390fd5b505b6040517f08c379a0000000000000000000000000000000000000000000000000000000008152600401612ec290615213565b60405180910390fd5b63f23a6e6160e01b7bffffffffffffffffffffffffffffffffffffffffffffffffffffffff1916817bffffffffffffffffffffffffffffffffffffffffffffffffffffffff191614612f52576040517f08c379a0000000000000000000000000000000000000000000000000000000008152600401612f49906152a5565b60405180910390fd5b505b505050505050565b612f64610f34565b612fa3576040517f08c379a0000000000000000000000000000000000000000000000000000000008152600401612f9a9061536b565b60405180910390fd5b565b60007f01ffc9a7000000000000000000000000000000000000000000000000000000007bffffffffffffffffffffffffffffffffffffffffffffffffffffffff1916827bffffffffffffffffffffffffffffffffffffffffffffffffffffffff1916149050919050565b60606130358273ffffffffffffffffffffffffffffffffffffffff16601460ff1661303c565b9050919050565b60606000600283600261304f919061538b565b61305991906141f8565b67ffffffffffffffff8111156130725761307161365b565b5b6040519080825280601f01601f1916602001820160405280156130a45781602001600182028036833780820191505090505b5090507f3000000000000000000000000000000000000000000000000000000000000000816000815181106130dc576130db614304565b5b60200101907effffffffffffffffffffffffffffffffffffffffffffffffffffffffffffff1916908160001a9053507f7800000000000000000000000000000000000000000000000000000000000000816001815181106131405761313f614304565b5b60200101907effffffffffffffffffffffffffffffffffffffffffffffffffffffffffffff1916908160001a90535060006001846002613180919061538b565b61318a91906141f8565b90505b600181111561322a577f3031323334353637383961626364656600000000000000000000000000000000600f8616601081106131cc576131cb614304565b5b1a60f81b8282815181106131e3576131e2614304565b5b60200101907effffffffffffffffffffffffffffffffffffffffffffffffffffffffffffff1916908160001a905350600485901c945080613223906153cd565b905061318d565b506000841461326e576040517f08c379a000000000000000000000000000000000000000000000000000000000815260040161326590615442565b60405180910390fd5b8091505092915050565b61328686868686868661346b565b600073ffffffffffffffffffffffffffffffffffffffff168573ffffffffffffffffffffffffffffffffffffffff16036133375760005b8351811015613335578281815181106132d9576132d8614304565b5b6020026020010151600560008684815181106132f8576132f7614304565b5b60200260200101518152602001908152602001600020600082825461331d91906141f8565b925050819055508061332e9061439f565b90506132bd565b505b600073ffffffffffffffffffffffffffffffffffffffff168473ffffffffffffffffffffffffffffffffffffffff16036134405760005b835181101561343e57600084828151811061338c5761338b614304565b5b6020026020010151905060008483815181106133ab576133aa614304565b5b6020026020010151905060006005600084815260200190815260200160002054905081811015613410576040517f08c379a0000000000000000000000000000000000000000000000000000000008152600401613407906154d4565b60405180910390fd5b8181036005600085815260200190815260200160002081905550505050806134379061439f565b905061336e565b505b505050505050565b6000808273ffffffffffffffffffffffffffffffffffffffff163b119050919050565b505050505050565b6000604051905090565b600080fd5b600080fd5b600073ffffffffffffffffffffffffffffffffffffffff82169050919050565b60006134b282613487565b9050919050565b6134c2816134a7565b81146134cd57600080fd5b50565b6000813590506134df816134b9565b92915050565b6000819050919050565b6134f8816134e5565b811461350357600080fd5b50565b600081359050613515816134ef565b92915050565b600080604083850312156135325761353161347d565b5b6000613540858286016134d0565b925050602061355185828601613506565b9150509250929050565b613564816134e5565b82525050565b600060208201905061357f600083018461355b565b92915050565b60007fffffffff0000000000000000000000000000000000000000000000000000000082169050919050565b6135ba81613585565b81146135c557600080fd5b50565b6000813590506135d7816135b1565b92915050565b6000602082840312156135f3576135f261347d565b5b6000613601848285016135c8565b91505092915050565b60008115159050919050565b61361f8161360a565b82525050565b600060208201905061363a6000830184613616565b92915050565b600080fd5b600080fd5b6000601f19601f8301169050919050565b7f4e487b7100000000000000000000000000000000000000000000000000000000600052604160045260246000fd5b6136938261364a565b810181811067ffffffffffffffff821117156136b2576136b161365b565b5b80604052505050565b60006136c5613473565b90506136d1828261368a565b919050565b600067ffffffffffffffff8211156136f1576136f061365b565b5b6136fa8261364a565b9050602081019050919050565b82818337600083830152505050565b6000613729613724846136d6565b6136bb565b90508281526020810184848401111561374557613744613645565b5b613750848285613707565b509392505050565b600082601f83011261376d5761376c613640565b5b813561377d848260208601613716565b91505092915050565b60006020828403121561379c5761379b61347d565b5b600082013567ffffffffffffffff8111156137ba576137b9613482565b5b6137c684828501613758565b91505092915050565b6000602082840312156137e5576137e461347d565b5b60006137f384828501613506565b91505092915050565b600081519050919050565b600082825260208201905092915050565b60005b8381101561383657808201518184015260208101905061381b565b60008484015250505050565b600061384d826137fc565b6138578185613807565b9350613867818560208601613818565b6138708161364a565b840191505092915050565b600060208201905081810360008301526138958184613842565b905092915050565b600067ffffffffffffffff8211156138b8576138b761365b565b5b602082029050602081019050919050565b600080fd5b60006138e16138dc8461389d565b6136bb565b90508083825260208201905060208402830185811115613904576139036138c9565b5b835b8181101561392d57806139198882613506565b845260208401935050602081019050613906565b5050509392505050565b600082601f83011261394c5761394b613640565b5b813561395c8482602086016138ce565b91505092915050565b600067ffffffffffffffff8211156139805761397f61365b565b5b6139898261364a565b9050602081019050919050565b60006139a96139a484613965565b6136bb565b9050828152602081018484840111156139c5576139c4613645565b5b6139d0848285613707565b509392505050565b600082601f8301126139ed576139ec613640565b5b81356139fd848260208601613996565b91505092915050565b60008060008060808587031215613a2057613a1f61347d565b5b6000613a2e878288016134d0565b945050602085013567ffffffffffffffff811115613a4f57613a4e613482565b5b613a5b87828801613937565b935050604085013567ffffffffffffffff811115613a7c57613a7b613482565b5b613a8887828801613937565b925050606085013567ffffffffffffffff811115613aa957613aa8613482565b5b613ab5878288016139d8565b91505092959194509250565b6000819050919050565b613ad481613ac1565b8114613adf57600080fd5b50565b600081359050613af181613acb565b92915050565b600060208284031215613b0d57613b0c61347d565b5b6000613b1b84828501613ae2565b91505092915050565b613b2d81613ac1565b82525050565b6000602082019050613b486000830184613b24565b92915050565b600080600060608486031215613b6757613b6661347d565b5b6000613b7586828701613506565b9350506020613b8686828701613506565b9250506040613b9786828701613506565b9150509250925092565b600080600080600060a08688031215613bbd57613bbc61347d565b5b6000613bcb888289016134d0565b9550506020613bdc888289016134d0565b945050604086013567ffffffffffffffff811115613bfd57613bfc613482565b5b613c0988828901613937565b935050606086013567ffffffffffffffff811115613c2a57613c29613482565b5b613c3688828901613937565b925050608086013567ffffffffffffffff811115613c5757613c56613482565b5b613c63888289016139d8565b9150509295509295909350565b60008060408385031215613c8757613c8661347d565b5b6000613c9585828601613ae2565b9250506020613ca6858286016134d0565b9150509250929050565b600060208284031215613cc657613cc561347d565b5b6000613cd4848285016134d0565b91505092915050565b600067ffffffffffffffff821115613cf857613cf761365b565b5b602082029050602081019050919050565b6000613d1c613d1784613cdd565b6136bb565b90508083825260208201905060208402830185811115613d3f57613d3e6138c9565b5b835b81811015613d685780613d5488826134d0565b845260208401935050602081019050613d41565b5050509392505050565b600082601f830112613d8757613d86613640565b5b8135613d97848260208601613d09565b91505092915050565b60008060408385031215613db757613db661347d565b5b600083013567ffffffffffffffff811115613dd557613dd4613482565b5b613de185828601613d72565b925050602083013567ffffffffffffffff811115613e0257613e01613482565b5b613e0e85828601613937565b9150509250929050565b600081519050919050565b600082825260208201905092915050565b6000819050602082019050919050565b613e4d816134e5565b82525050565b6000613e5f8383613e44565b60208301905092915050565b6000602082019050919050565b6000613e8382613e18565b613e8d8185613e23565b9350613e9883613e34565b8060005b83811015613ec9578151613eb08882613e53565b9750613ebb83613e6b565b925050600181019050613e9c565b5085935050505092915050565b60006020820190508181036000830152613ef08184613e78565b905092915050565b600080600060608486031215613f1157613f1061347d565b5b6000613f1f868287016134d0565b9350506020613f3086828701613506565b925050604084013567ffffffffffffffff811115613f5157613f50613482565b5b613f5d868287016139d8565b9150509250925092565b613f708161360a565b8114613f7b57600080fd5b50565b600081359050613f8d81613f67565b92915050565b60008060408385031215613faa57613fa961347d565b5b6000613fb8858286016134d0565b9250506020613fc985828601613f7e565b9150509250929050565b600060208284031215613fe957613fe861347d565b5b6000613ff784828501613f7e565b91505092915050565b600080604083850312156140175761401661347d565b5b6000614025858286016134d0565b9250506020614036858286016134d0565b9150509250929050565b600080600080600060a0868803121561405c5761405b61347d565b5b600061406a888289016134d0565b955050602061407b888289016134d0565b945050604061408c88828901613506565b935050606061409d88828901613506565b925050608086013567ffffffffffffffff8111156140be576140bd613482565b5b6140ca888289016139d8565b9150509295509295909350565b7f455243313135353a2061646472657373207a65726f206973206e6f742061207660008201527f616c6964206f776e657200000000000000000000000000000000000000000000602082015250565b6000614133602a83613807565b915061413e826140d7565b604082019050919050565b6000602082019050818103600083015261416281614126565b9050919050565b7f4e487b7100000000000000000000000000000000000000000000000000000000600052602260045260246000fd5b600060028204905060018216806141b057607f821691505b6020821081036141c3576141c2614169565b5b50919050565b7f4e487b7100000000000000000000000000000000000000000000000000000000600052601160045260246000fd5b6000614203826134e5565b915061420e836134e5565b9250828201905080821115614226576142256141c9565b5b92915050565b7f57686974656c697374204e465473206172652066756c6c79206d696e7465642e600082015250565b6000614262602083613807565b915061426d8261422c565b602082019050919050565b6000602082019050818103600083015261429181614255565b9050919050565b7f416c6c204e465473206172652066756c6c79206d696e7465642e000000000000600082015250565b60006142ce601a83613807565b91506142d982614298565b602082019050919050565b600060208201905081810360008301526142fd816142c1565b9050919050565b7f4e487b7100000000000000000000000000000000000000000000000000000000600052603260045260246000fd5b7f536f6d65204e4654732061726520616c7265616479206d696e74656400000000600082015250565b6000614369601c83613807565b915061437482614333565b602082019050919050565b600060208201905081810360008301526143988161435c565b9050919050565b60006143aa826134e5565b91507fffffffffffffffffffffffffffffffffffffffffffffffffffffffffffffffff82036143dc576143db6141c9565b5b600182019050919050565b7f455243313135353a2063616c6c6572206973206e6f7420746f6b656e206f776e60008201527f6572206f7220617070726f766564000000000000000000000000000000000000602082015250565b6000614443602e83613807565b915061444e826143e7565b604082019050919050565b6000602082019050818103600083015261447281614436565b9050919050565b7f416363657373436f6e74726f6c3a2063616e206f6e6c792072656e6f756e636560008201527f20726f6c657320666f722073656c660000000000000000000000000000000000602082015250565b60006144d5602f83613807565b91506144e082614479565b604082019050919050565b60006020820190508181036000830152614504816144c8565b9050919050565b7f455243313135353a206163636f756e747320616e6420696473206c656e67746860008201527f206d69736d617463680000000000000000000000000000000000000000000000602082015250565b6000614567602983613807565b91506145728261450b565b604082019050919050565b600060208201905081810360008301526145968161455a565b9050919050565b7f4f6e6c792077686974656c6973746564206d696e7465727320616c6c6f776564600082015250565b60006145d3602083613807565b91506145de8261459d565b602082019050919050565b60006020820190508181036000830152614602816145c6565b9050919050565b7f496e73756666696369656e74206d696e742062616c616e636500000000000000600082015250565b600061463f601983613807565b915061464a82614609565b602082019050919050565b6000602082019050818103600083015261466e81614632565b9050919050565b7f4e465420616c7265616479206d696e7465640000000000000000000000000000600082015250565b60006146ab601283613807565b91506146b682614675565b602082019050919050565b600060208201905081810360008301526146da8161469e565b9050919050565b60006146ec826134e5565b91506146f7836134e5565b925082820390508181111561470f5761470e6141c9565b5b92915050565b7f4e6f7420656e6f75676820746f6b656e73000000000000000000000000000000600082015250565b600061474b601183613807565b915061475682614715565b602082019050919050565b6000602082019050818103600083015261477a8161473e565b9050919050565b60008190508160005260206000209050919050565b60006020601f8301049050919050565b600082821b905092915050565b6000600883026147e37fffffffffffffffffffffffffffffffffffffffffffffffffffffffffffffffff826147a6565b6147ed86836147a6565b95508019841693508086168417925050509392505050565b6000819050919050565b600061482a614825614820846134e5565b614805565b6134e5565b9050919050565b6000819050919050565b6148448361480f565b61485861485082614831565b8484546147b3565b825550505050565b600090565b61486d614860565b61487881848461483b565b505050565b5b8181101561489c57614891600082614865565b60018101905061487e565b5050565b601f8211156148e1576148b281614781565b6148bb84614796565b810160208510156148ca578190505b6148de6148d685614796565b83018261487d565b50505b505050565b600082821c905092915050565b6000614904600019846008026148e6565b1980831691505092915050565b600061491d83836148f3565b9150826002028217905092915050565b614936826137fc565b67ffffffffffffffff81111561494f5761494e61365b565b5b6149598254614198565b6149648282856148a0565b600060209050601f8311600181146149975760008415614985578287015190505b61498f8582614911565b8655506149f7565b601f1984166149a586614781565b60005b828110156149cd578489015182556001820191506020850194506020810190506149a8565b868310156149ea57848901516149e6601f8916826148f3565b8355505b6001600288020188555050505b505050505050565b7f5061757361626c653a2070617573656400000000000000000000000000000000600082015250565b6000614a35601083613807565b9150614a40826149ff565b602082019050919050565b60006020820190508181036000830152614a6481614a28565b9050919050565b7f455243313135353a206d696e7420746f20746865207a65726f2061646472657360008201527f7300000000000000000000000000000000000000000000000000000000000000602082015250565b6000614ac7602183613807565b9150614ad282614a6b565b604082019050919050565b60006020820190508181036000830152614af681614aba565b9050919050565b7f455243313135353a2069647320616e6420616d6f756e7473206c656e6774682060008201527f6d69736d61746368000000000000000000000000000000000000000000000000602082015250565b6000614b59602883613807565b9150614b6482614afd565b604082019050919050565b60006020820190508181036000830152614b8881614b4c565b9050919050565b60006040820190508181036000830152614ba98185613e78565b90508181036020830152614bbd8184613e78565b90509392505050565b6000604082019050614bdb600083018561355b565b614be8602083018461355b565b9392505050565b7f455243313135353a207472616e7366657220746f20746865207a65726f20616460008201527f6472657373000000000000000000000000000000000000000000000000000000602082015250565b6000614c4b602583613807565b9150614c5682614bef565b604082019050919050565b60006020820190508181036000830152614c7a81614c3e565b9050919050565b7f455243313135353a20696e73756666696369656e742062616c616e636520666f60008201527f72207472616e7366657200000000000000000000000000000000000000000000602082015250565b6000614cdd602a83613807565b9150614ce882614c81565b604082019050919050565b60006020820190508181036000830152614d0c81614cd0565b9050919050565b614d1c816134a7565b82525050565b6000602082019050614d376000830184614d13565b92915050565b6000819050919050565b614d58614d53826134e5565b614d3d565b82525050565b60008160601b9050919050565b6000614d7682614d5e565b9050919050565b6000614d8882614d6b565b9050919050565b614da0614d9b826134a7565b614d7d565b82525050565b6000614db28286614d47565b602082019150614dc28285614d47565b602082019150614dd28284614d8f565b601482019150819050949350505050565b7f4e487b7100000000000000000000000000000000000000000000000000000000600052601260045260246000fd5b6000614e1d826134e5565b9150614e28836134e5565b925082614e3857614e37614de3565b5b828206905092915050565b7f455243313135353a2073657474696e6720617070726f76616c2073746174757360008201527f20666f722073656c660000000000000000000000000000000000000000000000602082015250565b6000614e9f602983613807565b9150614eaa82614e43565b604082019050919050565b60006020820190508181036000830152614ece81614e92565b9050919050565b600081905092915050565b7f416363657373436f6e74726f6c3a206163636f756e7420000000000000000000600082015250565b6000614f16601783614ed5565b9150614f2182614ee0565b601782019050919050565b6000614f37826137fc565b614f418185614ed5565b9350614f51818560208601613818565b80840191505092915050565b7f206973206d697373696e6720726f6c6520000000000000000000000000000000600082015250565b6000614f93601183614ed5565b9150614f9e82614f5d565b601182019050919050565b6000614fb482614f09565b9150614fc08285614f2c565b9150614fcb82614f86565b9150614fd78284614f2c565b91508190509392505050565b600081519050919050565b600082825260208201905092915050565b600061500a82614fe3565b6150148185614fee565b9350615024818560208601613818565b61502d8161364a565b840191505092915050565b600060a08201905061504d6000830188614d13565b61505a6020830187614d13565b818103604083015261506c8186613e78565b905081810360608301526150808185613e78565b905081810360808301526150948184614fff565b90509695505050505050565b6000815190506150af816135b1565b92915050565b6000602082840312156150cb576150ca61347d565b5b60006150d9848285016150a0565b91505092915050565b60008160e01c9050919050565b600060033d111561510e5760046000803e61510b6000516150e2565b90505b90565b600060443d1061519e57615123613473565b60043d036004823e80513d602482011167ffffffffffffffff8211171561514b57505061519e565b808201805167ffffffffffffffff811115615169575050505061519e565b80602083010160043d03850181111561518657505050505061519e565b6151958260200185018661368a565b82955050505050505b90565b7f455243313135353a207472616e7366657220746f206e6f6e2d4552433131353560008201527f526563656976657220696d706c656d656e746572000000000000000000000000602082015250565b60006151fd603483613807565b9150615208826151a1565b604082019050919050565b6000602082019050818103600083015261522c816151f0565b9050919050565b7f455243313135353a204552433131353552656365697665722072656a6563746560008201527f6420746f6b656e73000000000000000000000000000000000000000000000000602082015250565b600061528f602883613807565b915061529a82615233565b604082019050919050565b600060208201905081810360008301526152be81615282565b9050919050565b600060a0820190506152da6000830188614d13565b6152e76020830187614d13565b6152f4604083018661355b565b615301606083018561355b565b81810360808301526153138184614fff565b90509695505050505050565b7f5061757361626c653a206e6f7420706175736564000000000000000000000000600082015250565b6000615355601483613807565b91506153608261531f565b602082019050919050565b6000602082019050818103600083015261538481615348565b9050919050565b6000615396826134e5565b91506153a1836134e5565b92508282026153af816134e5565b915082820484148315176153c6576153c56141c9565b5b5092915050565b60006153d8826134e5565b9150600082036153eb576153ea6141c9565b5b600182039050919050565b7f537472696e67733a20686578206c656e67746820696e73756666696369656e74600082015250565b600061542c602083613807565b9150615437826153f6565b602082019050919050565b6000602082019050818103600083015261545b8161541f565b9050919050565b7f455243313135353a206275726e20616d6f756e74206578636565647320746f7460008201527f616c537570706c79000000000000000000000000000000000000000000000000602082015250565b60006154be602883613807565b91506154c982615462565b604082019050919050565b600060208201905081810360008301526154ed816154b1565b905091905056fea264697066735822122096c8ea445b424887f30da9df455519ecc6fe9710408f67202dc85b2c0206fec764736f6c63430008120033",
  "linkReferences": {},
  "deployedLinkReferences": {}
}